{
  "contractName": "dBank",
  "abi": [
    {
      "inputs": [
        {
          "internalType": "contract Token",
          "name": "_token",
          "type": "address"
        }
      ],
      "stateMutability": "nonpayable",
      "type": "constructor"
    },
    {
      "anonymous": false,
      "inputs": [
        {
          "indexed": true,
          "internalType": "address",
          "name": "user",
          "type": "address"
        },
        {
          "indexed": false,
          "internalType": "uint256",
          "name": "collateralEtherAmount",
          "type": "uint256"
        },
        {
          "indexed": false,
          "internalType": "uint256",
          "name": "borrowedTokenAmount",
          "type": "uint256"
        }
      ],
      "name": "Borrow",
      "type": "event"
    },
    {
      "anonymous": false,
      "inputs": [
        {
          "indexed": true,
          "internalType": "address",
          "name": "user",
          "type": "address"
        },
        {
          "indexed": false,
          "internalType": "uint256",
          "name": "etherAmount",
          "type": "uint256"
        },
        {
          "indexed": false,
          "internalType": "uint256",
          "name": "timeStart",
          "type": "uint256"
        }
      ],
      "name": "Deposit",
      "type": "event"
    },
    {
      "anonymous": false,
      "inputs": [
        {
          "indexed": true,
          "internalType": "address",
          "name": "user",
          "type": "address"
        },
        {
          "indexed": false,
          "internalType": "uint256",
          "name": "fee",
          "type": "uint256"
        }
      ],
      "name": "PayOff",
      "type": "event"
    },
    {
      "anonymous": false,
      "inputs": [
        {
          "indexed": true,
          "internalType": "address",
          "name": "user",
          "type": "address"
        },
        {
          "indexed": false,
          "internalType": "uint256",
          "name": "etherAmount",
          "type": "uint256"
        },
        {
          "indexed": false,
          "internalType": "uint256",
          "name": "depositTime",
          "type": "uint256"
        },
        {
          "indexed": false,
          "internalType": "uint256",
          "name": "interest",
          "type": "uint256"
        }
      ],
      "name": "Withdraw",
      "type": "event"
    },
    {
      "inputs": [
        {
          "internalType": "address",
          "name": "",
          "type": "address"
        }
      ],
      "name": "collateralEther",
      "outputs": [
        {
          "internalType": "uint256",
          "name": "",
          "type": "uint256"
        }
      ],
      "stateMutability": "view",
      "type": "function",
      "constant": true
    },
    {
      "inputs": [
        {
          "internalType": "address",
          "name": "",
          "type": "address"
        }
      ],
      "name": "depositStart",
      "outputs": [
        {
          "internalType": "uint256",
          "name": "",
          "type": "uint256"
        }
      ],
      "stateMutability": "view",
      "type": "function",
      "constant": true
    },
    {
      "inputs": [
        {
          "internalType": "address",
          "name": "",
          "type": "address"
        }
      ],
      "name": "etherBalanceOf",
      "outputs": [
        {
          "internalType": "uint256",
          "name": "",
          "type": "uint256"
        }
      ],
      "stateMutability": "view",
      "type": "function",
      "constant": true
    },
    {
      "inputs": [
        {
          "internalType": "address",
          "name": "",
          "type": "address"
        }
      ],
      "name": "isBorrowed",
      "outputs": [
        {
          "internalType": "bool",
          "name": "",
          "type": "bool"
        }
      ],
      "stateMutability": "view",
      "type": "function",
      "constant": true
    },
    {
      "inputs": [
        {
          "internalType": "address",
          "name": "",
          "type": "address"
        }
      ],
      "name": "isDeposited",
      "outputs": [
        {
          "internalType": "bool",
          "name": "",
          "type": "bool"
        }
      ],
      "stateMutability": "view",
      "type": "function",
      "constant": true
    },
    {
      "inputs": [],
      "name": "deposit",
      "outputs": [],
      "stateMutability": "payable",
      "type": "function",
      "payable": true
    },
    {
      "inputs": [],
      "name": "withdraw",
      "outputs": [],
      "stateMutability": "nonpayable",
      "type": "function"
    },
    {
      "inputs": [],
      "name": "borrow",
      "outputs": [],
      "stateMutability": "payable",
      "type": "function",
      "payable": true
    },
    {
      "inputs": [],
      "name": "payout",
      "outputs": [],
      "stateMutability": "nonpayable",
      "type": "function"
    }
  ],
  "bytecode": "0x60806040523480156200001157600080fd5b50604051620016b5380380620016b5833981810160405281019062000037919062000095565b806000806101000a81548173ffffffffffffffffffffffffffffffffffffffff021916908373ffffffffffffffffffffffffffffffffffffffff1602179055505062000123565b6000815190506200008f8162000109565b92915050565b600060208284031215620000a857600080fd5b6000620000b8848285016200007e565b91505092915050565b6000620000ce82620000e9565b9050919050565b6000620000e282620000c1565b9050919050565b600073ffffffffffffffffffffffffffffffffffffffff82169050919050565b6200011481620000d5565b81146200012057600080fd5b50565b61158280620001336000396000f3fe6080604052600436106100865760003560e01c806375a40d2a1161005957806375a40d2a14610133578063cdebd93214610170578063d0e30db0146101ad578063e68d3569146101b7578063ff87930a146101c157610086565b8063179fc99f1461008b5780633ccfd60b146100c857806363bd1d4a146100df57806373732024146100f6575b600080fd5b34801561009757600080fd5b506100b260048036038101906100ad9190610ef1565b6101fe565b6040516100bf91906112d7565b60405180910390f35b3480156100d457600080fd5b506100dd610216565b005b3480156100eb57600080fd5b506100f4610578565b005b34801561010257600080fd5b5061011d60048036038101906101189190610ef1565b610882565b60405161012a91906111dc565b60405180910390f35b34801561013f57600080fd5b5061015a60048036038101906101559190610ef1565b6108a2565b60405161016791906112d7565b60405180910390f35b34801561017c57600080fd5b5061019760048036038101906101929190610ef1565b6108ba565b6040516101a491906111dc565b60405180910390f35b6101b56108da565b005b6101bf610b7d565b005b3480156101cd57600080fd5b506101e860048036038101906101e39190610ef1565b610eaf565b6040516101f591906112d7565b60405180910390f35b60016020528060005260406000206000915090505481565b60011515600360003373ffffffffffffffffffffffffffffffffffffffff1673ffffffffffffffffffffffffffffffffffffffff16815260200190815260200160002060009054906101000a900460ff161515146102a9576040517f08c379a00000000000000000000000000000000000000000000000000000000081526004016102a090611237565b60405180910390fd5b6000600160003373ffffffffffffffffffffffffffffffffffffffff1673ffffffffffffffffffffffffffffffffffffffff1681526020019081526020016000205490506000600260003373ffffffffffffffffffffffffffffffffffffffff1673ffffffffffffffffffffffffffffffffffffffff168152602001908152602001600020544261033a9190611444565b90506000662386f26fc10000600160003373ffffffffffffffffffffffffffffffffffffffff1673ffffffffffffffffffffffffffffffffffffffff1681526020019081526020016000205461039091906113b9565b6301e3373161039f91906113ea565b9050600082826103af91906113ea565b905060008054906101000a900473ffffffffffffffffffffffffffffffffffffffff1673ffffffffffffffffffffffffffffffffffffffff166379c6506833836040518363ffffffff1660e01b815260040161040c9291906111b3565b600060405180830381600087803b15801561042657600080fd5b505af115801561043a573d6000803e3d6000fd5b505050506000600160003373ffffffffffffffffffffffffffffffffffffffff1673ffffffffffffffffffffffffffffffffffffffff168152602001908152602001600020819055506000600260003373ffffffffffffffffffffffffffffffffffffffff1673ffffffffffffffffffffffffffffffffffffffff168152602001908152602001600020819055506000600360003373ffffffffffffffffffffffffffffffffffffffff1673ffffffffffffffffffffffffffffffffffffffff16815260200190815260200160002060006101000a81548160ff0219169083151502179055503373ffffffffffffffffffffffffffffffffffffffff167f02f25270a4d87bea75db541cdfe559334a275b4a233520ed6c0a2429667cca9485858460405161056a9392919061131b565b60405180910390a250505050565b60011515600560003373ffffffffffffffffffffffffffffffffffffffff1673ffffffffffffffffffffffffffffffffffffffff16815260200190815260200160002060009054906101000a900460ff1615151461060b576040517f08c379a0000000000000000000000000000000000000000000000000000000008152600401610602906111f7565b60405180910390fd5b60008054906101000a900473ffffffffffffffffffffffffffffffffffffffff1673ffffffffffffffffffffffffffffffffffffffff166323b872dd33306002600460003373ffffffffffffffffffffffffffffffffffffffff1673ffffffffffffffffffffffffffffffffffffffff1681526020019081526020016000205461069591906113b9565b6040518463ffffffff1660e01b81526004016106b39392919061117c565b602060405180830381600087803b1580156106cd57600080fd5b505af11580156106e1573d6000803e3d6000fd5b505050506040513d601f19601f820116820180604052508101906107059190610f1a565b610744576040517f08c379a000000000000000000000000000000000000000000000000000000000815260040161073b90611217565b60405180910390fd5b6000600a600460003373ffffffffffffffffffffffffffffffffffffffff1673ffffffffffffffffffffffffffffffffffffffff1681526020019081526020016000205461079291906113b9565b90506000600460003373ffffffffffffffffffffffffffffffffffffffff1673ffffffffffffffffffffffffffffffffffffffff168152602001908152602001600020819055506000600560003373ffffffffffffffffffffffffffffffffffffffff1673ffffffffffffffffffffffffffffffffffffffff16815260200190815260200160002060006101000a81548160ff0219169083151502179055503373ffffffffffffffffffffffffffffffffffffffff167ffd9bbd044fa427970e4d882ebbb4a89ce422dc29b23f2777a14a93ecdf42c6448260405161087791906112d7565b60405180910390a250565b60036020528060005260406000206000915054906101000a900460ff1681565b60046020528060005260406000206000915090505481565b60056020528060005260406000206000915054906101000a900460ff1681565b60001515600360003373ffffffffffffffffffffffffffffffffffffffff1673ffffffffffffffffffffffffffffffffffffffff16815260200190815260200160002060009054906101000a900460ff1615151461096d576040517f08c379a0000000000000000000000000000000000000000000000000000000008152600401610964906112b7565b60405180910390fd5b662386f26fc100003410156109b7576040517f08c379a00000000000000000000000000000000000000000000000000000000081526004016109ae90611277565b60405180910390fd5b34600160003373ffffffffffffffffffffffffffffffffffffffff1673ffffffffffffffffffffffffffffffffffffffff16815260200190815260200160002054610a029190611363565b600160003373ffffffffffffffffffffffffffffffffffffffff1673ffffffffffffffffffffffffffffffffffffffff1681526020019081526020016000208190555042600260003373ffffffffffffffffffffffffffffffffffffffff1673ffffffffffffffffffffffffffffffffffffffff16815260200190815260200160002054610a909190611363565b600260003373ffffffffffffffffffffffffffffffffffffffff1673ffffffffffffffffffffffffffffffffffffffff168152602001908152602001600020819055506001600360003373ffffffffffffffffffffffffffffffffffffffff1673ffffffffffffffffffffffffffffffffffffffff16815260200190815260200160002060006101000a81548160ff0219169083151502179055503373ffffffffffffffffffffffffffffffffffffffff167f90890809c654f11d6e72a28fa60149770a0d11ec6c92319d6ceb2bb0a4ea1a153442604051610b739291906112f2565b60405180910390a2565b662386f26fc10000341015610bc7576040517f08c379a0000000000000000000000000000000000000000000000000000000008152600401610bbe90611257565b60405180910390fd5b60001515600560003373ffffffffffffffffffffffffffffffffffffffff1673ffffffffffffffffffffffffffffffffffffffff16815260200190815260200160002060009054906101000a900460ff16151514610c5a576040517f08c379a0000000000000000000000000000000000000000000000000000000008152600401610c5190611297565b60405180910390fd5b34600460003373ffffffffffffffffffffffffffffffffffffffff1673ffffffffffffffffffffffffffffffffffffffff16815260200190815260200160002054610ca59190611363565b600460003373ffffffffffffffffffffffffffffffffffffffff1673ffffffffffffffffffffffffffffffffffffffff1681526020019081526020016000208190555060006002600460003373ffffffffffffffffffffffffffffffffffffffff1673ffffffffffffffffffffffffffffffffffffffff16815260200190815260200160002054610d3691906113b9565b905060008054906101000a900473ffffffffffffffffffffffffffffffffffffffff1673ffffffffffffffffffffffffffffffffffffffff166379c6506833836040518363ffffffff1660e01b8152600401610d939291906111b3565b600060405180830381600087803b158015610dad57600080fd5b505af1158015610dc1573d6000803e3d6000fd5b505050506001600560003373ffffffffffffffffffffffffffffffffffffffff1673ffffffffffffffffffffffffffffffffffffffff16815260200190815260200160002060006101000a81548160ff0219169083151502179055503373ffffffffffffffffffffffffffffffffffffffff167fe1979fe4c35e0cef342fef5668e2c8e7a7e9f5d5d1ca8fee0ac6c427fa4153af600460003373ffffffffffffffffffffffffffffffffffffffff1673ffffffffffffffffffffffffffffffffffffffff1681526020019081526020016000205483604051610ea49291906112f2565b60405180910390a250565b60026020528060005260406000206000915090505481565b600081359050610ed68161151e565b92915050565b600081519050610eeb81611535565b92915050565b600060208284031215610f0357600080fd5b6000610f1184828501610ec7565b91505092915050565b600060208284031215610f2c57600080fd5b6000610f3a84828501610edc565b91505092915050565b610f4c81611478565b82525050565b610f5b8161148a565b82525050565b6000610f6e601683611352565b91507f4572726f722c204c6f616e206e6f7420616374697665000000000000000000006000830152602082019050919050565b6000610fae601b83611352565b91507f4572726f722c2063616e2774207265636569766520546f6b656e7300000000006000830152602082019050919050565b6000610fee601a83611352565b91507f4572726f722c206e6f2050726576696f7573204465706f7369740000000000006000830152602082019050919050565b600061102e602583611352565b91507f4572726f722c20436f6c6c61746572616c206d757374206265203e3d20302e3060008301527f31204554480000000000000000000000000000000000000000000000000000006020830152604082019050919050565b6000611094602283611352565b91507f4572726f722c204465706f736974206d757374206265203e3d20302e3031204560008301527f54480000000000000000000000000000000000000000000000000000000000006020830152604082019050919050565b60006110fa601983611352565b91507f4572726f722c204c6f616e20616c72656164792074616b656e000000000000006000830152602082019050919050565b600061113a601d83611352565b91507f4572726f722c204465706f73697420616c7265616479206163746976650000006000830152602082019050919050565b611176816114b6565b82525050565b60006060820190506111916000830186610f43565b61119e6020830185610f43565b6111ab604083018461116d565b949350505050565b60006040820190506111c86000830185610f43565b6111d5602083018461116d565b9392505050565b60006020820190506111f16000830184610f52565b92915050565b6000602082019050818103600083015261121081610f61565b9050919050565b6000602082019050818103600083015261123081610fa1565b9050919050565b6000602082019050818103600083015261125081610fe1565b9050919050565b6000602082019050818103600083015261127081611021565b9050919050565b6000602082019050818103600083015261129081611087565b9050919050565b600060208201905081810360008301526112b0816110ed565b9050919050565b600060208201905081810360008301526112d08161112d565b9050919050565b60006020820190506112ec600083018461116d565b92915050565b6000604082019050611307600083018561116d565b611314602083018461116d565b9392505050565b6000606082019050611330600083018661116d565b61133d602083018561116d565b61134a604083018461116d565b949350505050565b600082825260208201905092915050565b600061136e826114b6565b9150611379836114b6565b9250827fffffffffffffffffffffffffffffffffffffffffffffffffffffffffffffffff038211156113ae576113ad6114c0565b5b828201905092915050565b60006113c4826114b6565b91506113cf836114b6565b9250826113df576113de6114ef565b5b828204905092915050565b60006113f5826114b6565b9150611400836114b6565b9250817fffffffffffffffffffffffffffffffffffffffffffffffffffffffffffffffff0483118215151615611439576114386114c0565b5b828202905092915050565b600061144f826114b6565b915061145a836114b6565b92508282101561146d5761146c6114c0565b5b828203905092915050565b600061148382611496565b9050919050565b60008115159050919050565b600073ffffffffffffffffffffffffffffffffffffffff82169050919050565b6000819050919050565b7f4e487b7100000000000000000000000000000000000000000000000000000000600052601160045260246000fd5b7f4e487b7100000000000000000000000000000000000000000000000000000000600052601260045260246000fd5b61152781611478565b811461153257600080fd5b50565b61153e8161148a565b811461154957600080fd5b5056fea26469706673582212202e687e978cce04ebb951e5a68f484d10c9f221b4f3d91db14918c48dbd5c759664736f6c63430008000033",
  "immutableReferences": {},
  "source": "pragma solidity >=0.6.0 <=0.8.0;\r\n\r\nimport \"./Token.sol\";\r\n\r\ncontract dBank {\r\n    Token private token;\r\n\r\n    /* Mapping each Address to theirs Amount of Ether */\r\n    mapping(address => uint) public etherBalanceOf;\r\n    /* Mapping each Address to theirs Timestamp (if Block is mined) */\r\n    mapping(address => uint) public depositStart;\r\n    /* Mapping each Address to theirs Timestamp (if Block is mined) */\r\n    mapping(address => bool) public isDeposited;\r\n    /* Mapping each Address to theirs Collateral (specific Amount of Ether) */\r\n    mapping(address => uint) public collateralEther;\r\n    /* Mapping each Address to theirs Borrow Status */\r\n    mapping(address => bool) public isBorrowed;\r\n\r\n    /* Events to track the certain Activities that happens on the Blockchain */\r\n    event Deposit(address indexed user, uint etherAmount, uint timeStart);\r\n    event Withdraw(address indexed user, uint etherAmount, uint depositTime, uint interest);\r\n    event Borrow(address indexed user, uint collateralEtherAmount, uint borrowedTokenAmount);\r\n    event PayOff(address indexed user, uint fee);\r\n\r\n    /* Constructor is automatically runs if Contract is deployed to a Network (Blockchain) */\r\n    /* Deployed Token is passed into the Smart Contract through the Constructor */\r\n    constructor(Token _token) public {\r\n        token = _token;\r\n    }\r\n\r\n    function deposit() payable public {\r\n        /* Check if msg.sender didn't already deposited Funds */\r\n        require(isDeposited[msg.sender] == false, 'Error, Deposit already active');\r\n\r\n        /* Check if msg.value is >= than 0.01 ETH */\r\n        require(msg.value >= 1e16, 'Error, Deposit must be >= 0.01 ETH');\r\n\r\n        /* Increase msg.sender Ether deposit Balance */\r\n        etherBalanceOf[msg.sender] = etherBalanceOf[msg.sender] + msg.value;\r\n\r\n        /* Start msg.sender holding Time */\r\n        depositStart[msg.sender] = depositStart[msg.sender] + block.timestamp;\r\n\r\n        /* Set msg.sender deposit Status to true */\r\n        isDeposited[msg.sender] = true;\r\n\r\n        /* Trigger Deposit Event */\r\n        emit Deposit(msg.sender, msg.value, block.timestamp);\r\n    }\r\n\r\n    function withdraw() public {\r\n        /* Check if msg.sender Deposit Status is true */\r\n        require(isDeposited[msg.sender] == true, 'Error, no Previous Deposit');\r\n\r\n        /* Assign msg.sender Ether Deposit Balance to Variable for Event */\r\n        uint userBalance = etherBalanceOf[msg.sender];\r\n\r\n        /* HODL or long-term Strategy is one Crypto Investment Strategy */\r\n        /* Check Users HODL Time */\r\n        /* depositStart[msg.sender] holds the Time of the latest Block */\r\n        uint depositTime = block.timestamp - depositStart[msg.sender];\r\n\r\n        /* Calc Interest per Second */\r\n        /* 31668017 - Interest(10% APY) per Second for Minute deposit Amount (0.01 ETH), because: */\r\n        /* 1e15(10% of 0.01 ETH) / 31577600 (Seconds in 365.25 days) */\r\n\r\n        /* (userBalance / 1e16) calculates how much higher Interest will be (based on Deposit), for Example: */\r\n        /* For each Minute deposit (0.01 ETH), (userBalance / 1e16) = 1 (the same, 31668017/s) */\r\n        /* For deposit 0.02 ETH, (userBalance / 1e16) = 2 (doubled, (2*31668017)/s) */\r\n        uint interestPerSecond = 31668017 * (etherBalanceOf[msg.sender] / 1e16);\r\n\r\n        /* Calc accrued Interest */\r\n        uint interest = interestPerSecond * depositTime;\r\n\r\n        /* Send ETH to User */\r\n        //msg.sender.transfer(userBalance);\r\n\r\n        /* Send Interest in Tokens to User */\r\n        token.mintToken(msg.sender, interest);\r\n\r\n        /* Reset Depositor Data */\r\n        etherBalanceOf[msg.sender] = 0;\r\n        depositStart[msg.sender] = 0;\r\n        isDeposited[msg.sender] = false;\r\n\r\n        /* Trigger Withdraw Event */\r\n        emit Withdraw(msg.sender, userBalance, depositTime, interest);\r\n    }\r\n\r\n    function borrow() payable public {\r\n        /* Check if Collateral is >= than 0.01 ETH */\r\n        require(msg.value >= 1e16, 'Error, Collateral must be >= 0.01 ETH');\r\n\r\n        /* Check if User doesn't have active Loan */\r\n        require(isBorrowed[msg.sender] == false, 'Error, Loan already taken');\r\n\r\n        /* Add msg.value to Ether Collateral */\r\n        /* This Ether will be locked till user PayOff the Loan */\r\n        collateralEther[msg.sender] = collateralEther[msg.sender] + msg.value;\r\n\r\n        /* Calc Tokens Amount to mint which is 50% of msg.value */\r\n        uint tokensToMint = collateralEther[msg.sender] / 2;\r\n\r\n        /* Mint and send Tokens to User */\r\n        token.mintToken(msg.sender, tokensToMint);\r\n\r\n        /* Activate Users Borrower Loan Status */\r\n        isBorrowed[msg.sender] = true;\r\n\r\n        /* Trigger Borrow Event */\r\n        emit Borrow(msg.sender, collateralEther[msg.sender], tokensToMint);\r\n    }\r\n\r\n    function payout() public {\r\n        /* Check if Loan is active */\r\n        require(isBorrowed[msg.sender] == true, 'Error, Loan not active');\r\n\r\n        /* Check and transfer Tokens from User back to the Contract (must first approve dBank)*/\r\n        require(token.transferFrom(msg.sender, address(this), collateralEther[msg.sender] / 2), \"Error, can't receive Tokens\");\r\n\r\n        /* Calc 10% Fee */\r\n        uint fee = collateralEther[msg.sender] / 10;\r\n\r\n        /* Send Users Collateral minus Fee */\r\n        //msg.sender.transfer(collateralEther[msg.sender] - fee);\r\n\r\n        /* Reset Users Borrower Data */\r\n        collateralEther[msg.sender] = 0;\r\n        isBorrowed[msg.sender] = false;\r\n\r\n        /* Trigger PayOff Event */\r\n        emit PayOff(msg.sender, fee);\r\n    }\r\n}\r\n",
  "sourcePath": "C:/Users/stein/Downloads/dbank-starter_kit/src/contracts/dBank.sol",
  "compiler": {
    "name": "solc",
    "version": "0.8.0+commit.c7dfd78e.Emscripten.clang"
  },
  "schemaVersion": "3.4.1",
  "updatedAt": "2021-05-27T14:47:32.755Z",
  "networkType": "ethereum",
  "devdoc": {
    "kind": "dev",
    "methods": {},
    "version": 1
  },
  "userdoc": {
    "kind": "user",
    "methods": {},
    "version": 1
  }
}