{
  "contractName": "Token",
  "abi": [
    {
      "inputs": [],
      "stateMutability": "payable",
      "type": "constructor",
      "payable": true
    },
    {
      "anonymous": false,
      "inputs": [
        {
          "indexed": true,
          "internalType": "address",
          "name": "owner",
          "type": "address"
        },
        {
          "indexed": true,
          "internalType": "address",
          "name": "spender",
          "type": "address"
        },
        {
          "indexed": false,
          "internalType": "uint256",
          "name": "value",
          "type": "uint256"
        }
      ],
      "name": "Approval",
      "type": "event"
    },
    {
      "anonymous": false,
      "inputs": [
        {
          "indexed": true,
          "internalType": "address",
          "name": "from",
          "type": "address"
        },
        {
          "indexed": false,
          "internalType": "address",
          "name": "to",
          "type": "address"
        }
      ],
      "name": "MinterChanged",
      "type": "event"
    },
    {
      "anonymous": false,
      "inputs": [
        {
          "indexed": true,
          "internalType": "address",
          "name": "from",
          "type": "address"
        },
        {
          "indexed": true,
          "internalType": "address",
          "name": "to",
          "type": "address"
        },
        {
          "indexed": false,
          "internalType": "uint256",
          "name": "value",
          "type": "uint256"
        }
      ],
      "name": "Transfer",
      "type": "event"
    },
    {
      "inputs": [
        {
          "internalType": "address",
          "name": "owner",
          "type": "address"
        },
        {
          "internalType": "address",
          "name": "spender",
          "type": "address"
        }
      ],
      "name": "allowance",
      "outputs": [
        {
          "internalType": "uint256",
          "name": "",
          "type": "uint256"
        }
      ],
      "stateMutability": "view",
      "type": "function",
      "constant": true
    },
    {
      "inputs": [
        {
          "internalType": "address",
          "name": "spender",
          "type": "address"
        },
        {
          "internalType": "uint256",
          "name": "amount",
          "type": "uint256"
        }
      ],
      "name": "approve",
      "outputs": [
        {
          "internalType": "bool",
          "name": "",
          "type": "bool"
        }
      ],
      "stateMutability": "nonpayable",
      "type": "function"
    },
    {
      "inputs": [
        {
          "internalType": "address",
          "name": "account",
          "type": "address"
        }
      ],
      "name": "balanceOf",
      "outputs": [
        {
          "internalType": "uint256",
          "name": "",
          "type": "uint256"
        }
      ],
      "stateMutability": "view",
      "type": "function",
      "constant": true
    },
    {
      "inputs": [],
      "name": "decimals",
      "outputs": [
        {
          "internalType": "uint8",
          "name": "",
          "type": "uint8"
        }
      ],
      "stateMutability": "view",
      "type": "function",
      "constant": true
    },
    {
      "inputs": [
        {
          "internalType": "address",
          "name": "spender",
          "type": "address"
        },
        {
          "internalType": "uint256",
          "name": "subtractedValue",
          "type": "uint256"
        }
      ],
      "name": "decreaseAllowance",
      "outputs": [
        {
          "internalType": "bool",
          "name": "",
          "type": "bool"
        }
      ],
      "stateMutability": "nonpayable",
      "type": "function"
    },
    {
      "inputs": [
        {
          "internalType": "address",
          "name": "spender",
          "type": "address"
        },
        {
          "internalType": "uint256",
          "name": "addedValue",
          "type": "uint256"
        }
      ],
      "name": "increaseAllowance",
      "outputs": [
        {
          "internalType": "bool",
          "name": "",
          "type": "bool"
        }
      ],
      "stateMutability": "nonpayable",
      "type": "function"
    },
    {
      "inputs": [],
      "name": "minter",
      "outputs": [
        {
          "internalType": "address",
          "name": "",
          "type": "address"
        }
      ],
      "stateMutability": "view",
      "type": "function",
      "constant": true
    },
    {
      "inputs": [],
      "name": "name",
      "outputs": [
        {
          "internalType": "string",
          "name": "",
          "type": "string"
        }
      ],
      "stateMutability": "view",
      "type": "function",
      "constant": true
    },
    {
      "inputs": [],
      "name": "symbol",
      "outputs": [
        {
          "internalType": "string",
          "name": "",
          "type": "string"
        }
      ],
      "stateMutability": "view",
      "type": "function",
      "constant": true
    },
    {
      "inputs": [],
      "name": "totalSupply",
      "outputs": [
        {
          "internalType": "uint256",
          "name": "",
          "type": "uint256"
        }
      ],
      "stateMutability": "view",
      "type": "function",
      "constant": true
    },
    {
      "inputs": [
        {
          "internalType": "address",
          "name": "recipient",
          "type": "address"
        },
        {
          "internalType": "uint256",
          "name": "amount",
          "type": "uint256"
        }
      ],
      "name": "transfer",
      "outputs": [
        {
          "internalType": "bool",
          "name": "",
          "type": "bool"
        }
      ],
      "stateMutability": "nonpayable",
      "type": "function"
    },
    {
      "inputs": [
        {
          "internalType": "address",
          "name": "sender",
          "type": "address"
        },
        {
          "internalType": "address",
          "name": "recipient",
          "type": "address"
        },
        {
          "internalType": "uint256",
          "name": "amount",
          "type": "uint256"
        }
      ],
      "name": "transferFrom",
      "outputs": [
        {
          "internalType": "bool",
          "name": "",
          "type": "bool"
        }
      ],
      "stateMutability": "nonpayable",
      "type": "function"
    },
    {
      "inputs": [
        {
          "internalType": "address",
          "name": "dBank",
          "type": "address"
        }
      ],
      "name": "passMinterRole",
      "outputs": [
        {
          "internalType": "bool",
          "name": "",
          "type": "bool"
        }
      ],
      "stateMutability": "nonpayable",
      "type": "function"
    },
    {
      "inputs": [
        {
          "internalType": "address",
          "name": "account",
          "type": "address"
        },
        {
          "internalType": "uint256",
          "name": "amount",
          "type": "uint256"
        }
      ],
      "name": "mintToken",
      "outputs": [],
      "stateMutability": "nonpayable",
      "type": "function"
    }
  ],
  "bytecode": "0x60806040526040518060400160405280601b81526020017f446563656e7472616c697a65642042616e6b2043757272656e637900000000008152506040518060400160405280600381526020017f4442430000000000000000000000000000000000000000000000000000000000815250816003908051906020019062000088929190620000eb565b508060049080519060200190620000a1929190620000eb565b50505033600560006101000a81548173ffffffffffffffffffffffffffffffffffffffff021916908373ffffffffffffffffffffffffffffffffffffffff16021790555062000200565b828054620000f9906200019b565b90600052602060002090601f0160209004810192826200011d576000855562000169565b82601f106200013857805160ff191683800117855562000169565b8280016001018555821562000169579182015b82811115620001685782518255916020019190600101906200014b565b5b5090506200017891906200017c565b5090565b5b80821115620001975760008160009055506001016200017d565b5090565b60006002820490506001821680620001b457607f821691505b60208210811415620001cb57620001ca620001d1565b5b50919050565b7f4e487b7100000000000000000000000000000000000000000000000000000000600052602260045260246000fd5b61190380620002106000396000f3fe608060405234801561001057600080fd5b50600436106100ea5760003560e01c806370a082311161008c578063a457c2d711610066578063a457c2d714610261578063a9059cbb14610291578063d7fc5b15146102c1578063dd62ed3e146102f1576100ea565b806370a08231146101f757806379c650681461022757806395d89b4114610243576100ea565b806318160ddd116100c857806318160ddd1461015b57806323b872dd14610179578063313ce567146101a957806339509351146101c7576100ea565b806306fdde03146100ef578063075461721461010d578063095ea7b31461012b575b600080fd5b6100f7610321565b6040516101049190611538565b60405180910390f35b6101156103b3565b6040516101229190611502565b60405180910390f35b6101456004803603810190610140919061107b565b6103d9565b604051610152919061151d565b60405180910390f35b6101636103f7565b604051610170919061169a565b60405180910390f35b610193600480360381019061018e919061102c565b610401565b6040516101a0919061151d565b60405180910390f35b6101b1610502565b6040516101be91906116b5565b60405180910390f35b6101e160048036038101906101dc919061107b565b61050b565b6040516101ee919061151d565b60405180910390f35b610211600480360381019061020c9190610fc7565b6105b7565b60405161021e919061169a565b60405180910390f35b610241600480360381019061023c919061107b565b6105ff565b005b61024b61069d565b6040516102589190611538565b60405180910390f35b61027b6004803603810190610276919061107b565b61072f565b604051610288919061151d565b60405180910390f35b6102ab60048036038101906102a6919061107b565b610823565b6040516102b8919061151d565b60405180910390f35b6102db60048036038101906102d69190610fc7565b610841565b6040516102e8919061151d565b60405180910390f35b61030b60048036038101906103069190610ff0565b61096b565b604051610318919061169a565b60405180910390f35b606060038054610330906117fe565b80601f016020809104026020016040519081016040528092919081815260200182805461035c906117fe565b80156103a95780601f1061037e576101008083540402835291602001916103a9565b820191906000526020600020905b81548152906001019060200180831161038c57829003601f168201915b5050505050905090565b600560009054906101000a900473ffffffffffffffffffffffffffffffffffffffff1681565b60006103ed6103e66109f2565b84846109fa565b6001905092915050565b6000600254905090565b600061040e848484610bc5565b6000600160008673ffffffffffffffffffffffffffffffffffffffff1673ffffffffffffffffffffffffffffffffffffffff16815260200190815260200160002060006104596109f2565b73ffffffffffffffffffffffffffffffffffffffff1673ffffffffffffffffffffffffffffffffffffffff168152602001908152602001600020549050828110156104d9576040517f08c379a00000000000000000000000000000000000000000000000000000000081526004016104d0906115fa565b60405180910390fd5b6104f6856104e56109f2565b85846104f19190611742565b6109fa565b60019150509392505050565b60006012905090565b60006105ad6105186109f2565b8484600160006105266109f2565b73ffffffffffffffffffffffffffffffffffffffff1673ffffffffffffffffffffffffffffffffffffffff16815260200190815260200160002060008873ffffffffffffffffffffffffffffffffffffffff1673ffffffffffffffffffffffffffffffffffffffff168152602001908152602001600020546105a891906116ec565b6109fa565b6001905092915050565b60008060008373ffffffffffffffffffffffffffffffffffffffff1673ffffffffffffffffffffffffffffffffffffffff168152602001908152602001600020549050919050565b600560009054906101000a900473ffffffffffffffffffffffffffffffffffffffff1673ffffffffffffffffffffffffffffffffffffffff163373ffffffffffffffffffffffffffffffffffffffff161461068f576040517f08c379a0000000000000000000000000000000000000000000000000000000008152600401610686906115ba565b60405180910390fd5b6106998282610e44565b5050565b6060600480546106ac906117fe565b80601f01602080910402602001604051908101604052809291908181526020018280546106d8906117fe565b80156107255780601f106106fa57610100808354040283529160200191610725565b820191906000526020600020905b81548152906001019060200180831161070857829003601f168201915b5050505050905090565b6000806001600061073e6109f2565b73ffffffffffffffffffffffffffffffffffffffff1673ffffffffffffffffffffffffffffffffffffffff16815260200190815260200160002060008573ffffffffffffffffffffffffffffffffffffffff1673ffffffffffffffffffffffffffffffffffffffff168152602001908152602001600020549050828110156107fb576040517f08c379a00000000000000000000000000000000000000000000000000000000081526004016107f29061165a565b60405180910390fd5b6108186108066109f2565b8585846108139190611742565b6109fa565b600191505092915050565b60006108376108306109f2565b8484610bc5565b6001905092915050565b6000600560009054906101000a900473ffffffffffffffffffffffffffffffffffffffff1673ffffffffffffffffffffffffffffffffffffffff163373ffffffffffffffffffffffffffffffffffffffff16146108d3576040517f08c379a00000000000000000000000000000000000000000000000000000000081526004016108ca906115da565b60405180910390fd5b81600560006101000a81548173ffffffffffffffffffffffffffffffffffffffff021916908373ffffffffffffffffffffffffffffffffffffffff1602179055503373ffffffffffffffffffffffffffffffffffffffff167f3b0007eb941cf645526cbb3a4fdaecda9d28ce4843167d9263b536a1f1edc0f68360405161095a9190611502565b60405180910390a260019050919050565b6000600160008473ffffffffffffffffffffffffffffffffffffffff1673ffffffffffffffffffffffffffffffffffffffff16815260200190815260200160002060008373ffffffffffffffffffffffffffffffffffffffff1673ffffffffffffffffffffffffffffffffffffffff16815260200190815260200160002054905092915050565b600033905090565b600073ffffffffffffffffffffffffffffffffffffffff168373ffffffffffffffffffffffffffffffffffffffff161415610a6a576040517f08c379a0000000000000000000000000000000000000000000000000000000008152600401610a619061163a565b60405180910390fd5b600073ffffffffffffffffffffffffffffffffffffffff168273ffffffffffffffffffffffffffffffffffffffff161415610ada576040517f08c379a0000000000000000000000000000000000000000000000000000000008152600401610ad19061157a565b60405180910390fd5b80600160008573ffffffffffffffffffffffffffffffffffffffff1673ffffffffffffffffffffffffffffffffffffffff16815260200190815260200160002060008473ffffffffffffffffffffffffffffffffffffffff1673ffffffffffffffffffffffffffffffffffffffff168152602001908152602001600020819055508173ffffffffffffffffffffffffffffffffffffffff168373ffffffffffffffffffffffffffffffffffffffff167f8c5be1e5ebec7d5bd14f71427d1e84f3dd0314c0f7b2291e5b200ac8c7c3b92583604051610bb8919061169a565b60405180910390a3505050565b600073ffffffffffffffffffffffffffffffffffffffff168373ffffffffffffffffffffffffffffffffffffffff161415610c35576040517f08c379a0000000000000000000000000000000000000000000000000000000008152600401610c2c9061161a565b60405180910390fd5b600073ffffffffffffffffffffffffffffffffffffffff168273ffffffffffffffffffffffffffffffffffffffff161415610ca5576040517f08c379a0000000000000000000000000000000000000000000000000000000008152600401610c9c9061155a565b60405180910390fd5b610cb0838383610f98565b60008060008573ffffffffffffffffffffffffffffffffffffffff1673ffffffffffffffffffffffffffffffffffffffff16815260200190815260200160002054905081811015610d36576040517f08c379a0000000000000000000000000000000000000000000000000000000008152600401610d2d9061159a565b60405180910390fd5b8181610d429190611742565b6000808673ffffffffffffffffffffffffffffffffffffffff1673ffffffffffffffffffffffffffffffffffffffff16815260200190815260200160002081905550816000808573ffffffffffffffffffffffffffffffffffffffff1673ffffffffffffffffffffffffffffffffffffffff1681526020019081526020016000206000828254610dd291906116ec565b925050819055508273ffffffffffffffffffffffffffffffffffffffff168473ffffffffffffffffffffffffffffffffffffffff167fddf252ad1be2c89b69c2b068fc378daa952ba7f163c4a11628f55a4df523b3ef84604051610e36919061169a565b60405180910390a350505050565b600073ffffffffffffffffffffffffffffffffffffffff168273ffffffffffffffffffffffffffffffffffffffff161415610eb4576040517f08c379a0000000000000000000000000000000000000000000000000000000008152600401610eab9061167a565b60405180910390fd5b610ec060008383610f98565b8060026000828254610ed291906116ec565b92505081905550806000808473ffffffffffffffffffffffffffffffffffffffff1673ffffffffffffffffffffffffffffffffffffffff1681526020019081526020016000206000828254610f2791906116ec565b925050819055508173ffffffffffffffffffffffffffffffffffffffff16600073ffffffffffffffffffffffffffffffffffffffff167fddf252ad1be2c89b69c2b068fc378daa952ba7f163c4a11628f55a4df523b3ef83604051610f8c919061169a565b60405180910390a35050565b505050565b600081359050610fac8161189f565b92915050565b600081359050610fc1816118b6565b92915050565b600060208284031215610fd957600080fd5b6000610fe784828501610f9d565b91505092915050565b6000806040838503121561100357600080fd5b600061101185828601610f9d565b925050602061102285828601610f9d565b9150509250929050565b60008060006060848603121561104157600080fd5b600061104f86828701610f9d565b935050602061106086828701610f9d565b925050604061107186828701610fb2565b9150509250925092565b6000806040838503121561108e57600080fd5b600061109c85828601610f9d565b92505060206110ad85828601610fb2565b9150509250929050565b6110c081611776565b82525050565b6110cf81611788565b82525050565b60006110e0826116d0565b6110ea81856116db565b93506110fa8185602086016117cb565b6111038161188e565b840191505092915050565b600061111b6023836116db565b91507f45524332303a207472616e7366657220746f20746865207a65726f206164647260008301527f65737300000000000000000000000000000000000000000000000000000000006020830152604082019050919050565b60006111816022836116db565b91507f45524332303a20617070726f766520746f20746865207a65726f20616464726560008301527f73730000000000000000000000000000000000000000000000000000000000006020830152604082019050919050565b60006111e76026836116db565b91507f45524332303a207472616e7366657220616d6f756e742065786365656473206260008301527f616c616e636500000000000000000000000000000000000000000000000000006020830152604082019050919050565b600061124d6029836116db565b91507f4572726f723a2053656e64657220646f6573206e6f7420686176652061204d6960008301527f6e74657220526f6c6500000000000000000000000000000000000000000000006020830152604082019050919050565b60006112b36028836116db565b91507f4572726f723a204f6e6c79204f776e65722063616e206368616e6765204d696e60008301527f74657220526f6c650000000000000000000000000000000000000000000000006020830152604082019050919050565b60006113196028836116db565b91507f45524332303a207472616e7366657220616d6f756e742065786365656473206160008301527f6c6c6f77616e63650000000000000000000000000000000000000000000000006020830152604082019050919050565b600061137f6025836116db565b91507f45524332303a207472616e736665722066726f6d20746865207a65726f20616460008301527f64726573730000000000000000000000000000000000000000000000000000006020830152604082019050919050565b60006113e56024836116db565b91507f45524332303a20617070726f76652066726f6d20746865207a65726f2061646460008301527f72657373000000000000000000000000000000000000000000000000000000006020830152604082019050919050565b600061144b6025836116db565b91507f45524332303a2064656372656173656420616c6c6f77616e63652062656c6f7760008301527f207a65726f0000000000000000000000000000000000000000000000000000006020830152604082019050919050565b60006114b1601f836116db565b91507f45524332303a206d696e7420746f20746865207a65726f2061646472657373006000830152602082019050919050565b6114ed816117b4565b82525050565b6114fc816117be565b82525050565b600060208201905061151760008301846110b7565b92915050565b600060208201905061153260008301846110c6565b92915050565b6000602082019050818103600083015261155281846110d5565b905092915050565b600060208201905081810360008301526115738161110e565b9050919050565b6000602082019050818103600083015261159381611174565b9050919050565b600060208201905081810360008301526115b3816111da565b9050919050565b600060208201905081810360008301526115d381611240565b9050919050565b600060208201905081810360008301526115f3816112a6565b9050919050565b600060208201905081810360008301526116138161130c565b9050919050565b6000602082019050818103600083015261163381611372565b9050919050565b60006020820190508181036000830152611653816113d8565b9050919050565b600060208201905081810360008301526116738161143e565b9050919050565b60006020820190508181036000830152611693816114a4565b9050919050565b60006020820190506116af60008301846114e4565b92915050565b60006020820190506116ca60008301846114f3565b92915050565b600081519050919050565b600082825260208201905092915050565b60006116f7826117b4565b9150611702836117b4565b9250827fffffffffffffffffffffffffffffffffffffffffffffffffffffffffffffffff0382111561173757611736611830565b5b828201905092915050565b600061174d826117b4565b9150611758836117b4565b92508282101561176b5761176a611830565b5b828203905092915050565b600061178182611794565b9050919050565b60008115159050919050565b600073ffffffffffffffffffffffffffffffffffffffff82169050919050565b6000819050919050565b600060ff82169050919050565b60005b838110156117e95780820151818401526020810190506117ce565b838111156117f8576000848401525b50505050565b6000600282049050600182168061181657607f821691505b6020821081141561182a5761182961185f565b5b50919050565b7f4e487b7100000000000000000000000000000000000000000000000000000000600052601160045260246000fd5b7f4e487b7100000000000000000000000000000000000000000000000000000000600052602260045260246000fd5b6000601f19601f8301169050919050565b6118a881611776565b81146118b357600080fd5b50565b6118bf816117b4565b81146118ca57600080fd5b5056fea264697066735822122076587c6309993cbe18a6d9f3451584b059a16b804f3da73fcb6e50a47a16a2c264736f6c63430008000033",
  "immutableReferences": {},
  "source": "pragma solidity >=0.6.0 <=0.8.0;\r\n\r\n/* Using a Library which implements all ERC20 Standard Specifications for a Token */\r\n/* The Token is based on this Implementation */\r\nimport \"@openzeppelin/contracts/token/ERC20/ERC20.sol\";\r\n\r\n/* Inherit a Smart Contract from ERC20 (from openzeppelin) */\r\ncontract Token is ERC20 {\r\n    /* Minter is that Person that will mine the Token */\r\n    address public minter;\r\n\r\n    /* Smart Contract have Events that can be subscribed from the Front End App or Blockchain */\r\n    /* Event triggers if the Owner of the Token changed */\r\n    event MinterChanged(address indexed from, address to);\r\n\r\n    /* Constructor is automatically runs if Contract is deployed to a Network (Blockchain) */\r\n    /* Run the ERC20() Constructor which is inherited */\r\n    constructor() public payable ERC20(\"Decentralized Bank Currency\", \"DBC\") {\r\n        /* msg is a global Variable which contains the Sender which calls the Smart Contract */\r\n        minter = msg.sender;\r\n    }\r\n\r\n    /* Function to pass the Minter Role to the Bank */\r\n    function passMinterRole(address dBank) public returns (bool) {\r\n        /* Check if msg.sender have Minter Role*/\r\n        require(msg.sender == minter, 'Error: Only Owner can change Minter Role');\r\n        minter = dBank;\r\n        /* Calling Event */\r\n        emit MinterChanged(msg.sender, dBank);\r\n        return true;\r\n    }\r\n\r\n    /* Function that mint new Tokens */\r\n    function mintToken(address account, uint256 amount) public {\r\n        /* Check if msg.sender have Minter Role*/\r\n        require(msg.sender == minter, 'Error: Sender does not have a Minter Role');\r\n        _mint(account, amount);\r\n    }\r\n}",
  "sourcePath": "C:\\Users\\stein\\Downloads\\dbank-starter_kit\\src\\contracts\\Token.sol",
  "compiler": {
    "name": "solc",
    "version": "0.8.0+commit.c7dfd78e.Emscripten.clang"
  },
  "schemaVersion": "3.4.1",
  "updatedAt": "2021-05-27T14:47:32.740Z",
  "networkType": "ethereum",
  "devdoc": {
    "kind": "dev",
    "methods": {
      "allowance(address,address)": {
        "details": "See {IERC20-allowance}."
      },
      "approve(address,uint256)": {
        "details": "See {IERC20-approve}. Requirements: - `spender` cannot be the zero address."
      },
      "balanceOf(address)": {
        "details": "See {IERC20-balanceOf}."
      },
      "decimals()": {
        "details": "Returns the number of decimals used to get its user representation. For example, if `decimals` equals `2`, a balance of `505` tokens should be displayed to a user as `5,05` (`505 / 10 ** 2`). Tokens usually opt for a value of 18, imitating the relationship between Ether and Wei. This is the value {ERC20} uses, unless this function is overridden; NOTE: This information is only used for _display_ purposes: it in no way affects any of the arithmetic of the contract, including {IERC20-balanceOf} and {IERC20-transfer}."
      },
      "decreaseAllowance(address,uint256)": {
        "details": "Atomically decreases the allowance granted to `spender` by the caller. This is an alternative to {approve} that can be used as a mitigation for problems described in {IERC20-approve}. Emits an {Approval} event indicating the updated allowance. Requirements: - `spender` cannot be the zero address. - `spender` must have allowance for the caller of at least `subtractedValue`."
      },
      "increaseAllowance(address,uint256)": {
        "details": "Atomically increases the allowance granted to `spender` by the caller. This is an alternative to {approve} that can be used as a mitigation for problems described in {IERC20-approve}. Emits an {Approval} event indicating the updated allowance. Requirements: - `spender` cannot be the zero address."
      },
      "name()": {
        "details": "Returns the name of the token."
      },
      "symbol()": {
        "details": "Returns the symbol of the token, usually a shorter version of the name."
      },
      "totalSupply()": {
        "details": "See {IERC20-totalSupply}."
      },
      "transfer(address,uint256)": {
        "details": "See {IERC20-transfer}. Requirements: - `recipient` cannot be the zero address. - the caller must have a balance of at least `amount`."
      },
      "transferFrom(address,address,uint256)": {
        "details": "See {IERC20-transferFrom}. Emits an {Approval} event indicating the updated allowance. This is not required by the EIP. See the note at the beginning of {ERC20}. Requirements: - `sender` and `recipient` cannot be the zero address. - `sender` must have a balance of at least `amount`. - the caller must have allowance for ``sender``'s tokens of at least `amount`."
      }
    },
    "version": 1
  },
  "userdoc": {
    "kind": "user",
    "methods": {},
    "version": 1
  }
}